{
  "_format": "hh-sol-artifact-1",
  "contractName": "Bank",
  "sourceName": "contracts/Bank.sol",
  "abi": [
    {
      "anonymous": false,
      "inputs": [
        {
          "indexed": true,
          "internalType": "address",
          "name": "user",
          "type": "address"
        },
        {
          "indexed": false,
          "internalType": "uint256",
          "name": "amount",
          "type": "uint256"
        },
        {
          "indexed": false,
          "internalType": "uint256",
          "name": "timestamp",
          "type": "uint256"
        }
      ],
      "name": "Deposited",
      "type": "event"
    },
    {
      "anonymous": false,
      "inputs": [
        {
          "indexed": true,
          "internalType": "address",
          "name": "user",
          "type": "address"
        },
        {
          "indexed": false,
          "internalType": "uint256",
          "name": "amount",
          "type": "uint256"
        },
        {
          "indexed": false,
          "internalType": "uint256",
          "name": "timestamp",
          "type": "uint256"
        }
      ],
      "name": "Withdrawn",
      "type": "event"
    },
    {
      "inputs": [],
      "name": "deposit",
      "outputs": [],
      "stateMutability": "payable",
      "type": "function"
    },
    {
      "inputs": [],
      "name": "getBalance",
      "outputs": [
        {
          "internalType": "uint256",
          "name": "",
          "type": "uint256"
        }
      ],
      "stateMutability": "view",
      "type": "function"
    },
    {
      "inputs": [],
      "name": "timeUntilWithdraw",
      "outputs": [
        {
          "internalType": "uint256",
          "name": "",
          "type": "uint256"
        }
      ],
      "stateMutability": "view",
      "type": "function"
    },
    {
      "inputs": [
        {
          "internalType": "uint256",
          "name": "amount",
          "type": "uint256"
        }
      ],
      "name": "withdraw",
      "outputs": [],
      "stateMutability": "nonpayable",
      "type": "function"
    }
  ],
  "bytecode": "0x6080604052348015600f57600080fd5b5061086d8061001f6000396000f3fe60806040526004361061003f5760003560e01c806312065fe0146100445780632e1a7d4d1461006f578063d0e30db014610098578063f91c5240146100a2575b600080fd5b34801561005057600080fd5b506100596100cd565b604051610066919061053d565b60405180910390f35b34801561007b57600080fd5b5061009660048036038101906100919190610589565b610113565b005b6100a0610379565b005b3480156100ae57600080fd5b506100b76104ac565b6040516100c4919061053d565b60405180910390f35b60008060003373ffffffffffffffffffffffffffffffffffffffff1673ffffffffffffffffffffffffffffffffffffffff16815260200190815260200160002054905090565b62015180600160003373ffffffffffffffffffffffffffffffffffffffff1673ffffffffffffffffffffffffffffffffffffffff1681526020019081526020016000205461016191906105e5565b4210156101a3576040517f08c379a000000000000000000000000000000000000000000000000000000000815260040161019a9061069c565b60405180910390fd5b806000803373ffffffffffffffffffffffffffffffffffffffff1673ffffffffffffffffffffffffffffffffffffffff168152602001908152602001600020541015610224576040517f08c379a000000000000000000000000000000000000000000000000000000000815260040161021b90610708565b60405180910390fd5b806000803373ffffffffffffffffffffffffffffffffffffffff1673ffffffffffffffffffffffffffffffffffffffff16815260200190815260200160002060008282546102729190610728565b9250508190555060003373ffffffffffffffffffffffffffffffffffffffff168260405161029f9061078d565b60006040518083038185875af1925050503d80600081146102dc576040519150601f19603f3d011682016040523d82523d6000602084013e6102e1565b606091505b5050905080610325576040517f08c379a000000000000000000000000000000000000000000000000000000000815260040161031c906107ee565b60405180910390fd5b3373ffffffffffffffffffffffffffffffffffffffff167f92ccf450a286a957af52509bc1c9939d1a6a481783e142e41e2499f0bb66ebc6834260405161036d92919061080e565b60405180910390a25050565b346000803373ffffffffffffffffffffffffffffffffffffffff1673ffffffffffffffffffffffffffffffffffffffff16815260200190815260200160002060008282546103c791906105e5565b925050819055506000600160003373ffffffffffffffffffffffffffffffffffffffff1673ffffffffffffffffffffffffffffffffffffffff168152602001908152602001600020540361045a5742600160003373ffffffffffffffffffffffffffffffffffffffff1673ffffffffffffffffffffffffffffffffffffffff168152602001908152602001600020819055505b3373ffffffffffffffffffffffffffffffffffffffff167f73a19dd210f1a7f902193214c0ee91dd35ee5b4d920cba8d519eca65a7b488ca34426040516104a292919061080e565b60405180910390a2565b60008062015180600160003373ffffffffffffffffffffffffffffffffffffffff1673ffffffffffffffffffffffffffffffffffffffff168152602001908152602001600020546104fd91906105e5565b905080421115610511576000915050610521565b428161051d9190610728565b9150505b90565b6000819050919050565b61053781610524565b82525050565b6000602082019050610552600083018461052e565b92915050565b600080fd5b61056681610524565b811461057157600080fd5b50565b6000813590506105838161055d565b92915050565b60006020828403121561059f5761059e610558565b5b60006105ad84828501610574565b91505092915050565b7f4e487b7100000000000000000000000000000000000000000000000000000000600052601160045260246000fd5b60006105f082610524565b91506105fb83610524565b9250828201905080821115610613576106126105b6565b5b92915050565b600082825260208201905092915050565b7f5769746864726177616c7320616c6c6f776564206166746572206f6e6520646160008201527f7900000000000000000000000000000000000000000000000000000000000000602082015250565b6000610686602183610619565b91506106918261062a565b604082019050919050565b600060208201905081810360008301526106b581610679565b9050919050565b7f496e73756666696369656e742062616c616e6365000000000000000000000000600082015250565b60006106f2601483610619565b91506106fd826106bc565b602082019050919050565b60006020820190508181036000830152610721816106e5565b9050919050565b600061073382610524565b915061073e83610524565b9250828203905081811115610756576107556105b6565b5b92915050565b600081905092915050565b50565b600061077760008361075c565b915061078282610767565b600082019050919050565b60006107988261076a565b9150819050919050565b7f5472616e73666572206661696c65640000000000000000000000000000000000600082015250565b60006107d8600f83610619565b91506107e3826107a2565b602082019050919050565b60006020820190508181036000830152610807816107cb565b9050919050565b6000604082019050610823600083018561052e565b610830602083018461052e565b939250505056fea2646970667358221220797e2c390b62d03d62bbf6553671c631cada1b240f06470de07cb00d3ee1645664736f6c634300081c0033",
  "linkReferences": {},
  "deployedLinkReferences": {}
}